{
  "_format": "hh-sol-artifact-1",
  "contractName": "Polling",
  "sourceName": "contracts/Polling.sol",
  "abi": [
    {
      "inputs": [
        {
          "internalType": "string[]",
          "name": "choiceNames",
          "type": "string[]"
        },
        {
          "internalType": "string",
          "name": "_st",
          "type": "string"
        }
      ],
      "stateMutability": "nonpayable",
      "type": "constructor"
    },
    {
      "inputs": [],
      "name": "OfficialAddress",
      "outputs": [
        {
          "internalType": "address",
          "name": "",
          "type": "address"
        }
      ],
      "stateMutability": "view",
      "type": "function"
    },
    {
      "inputs": [],
      "name": "ResultDeclare",
      "outputs": [
        {
          "internalType": "string",
          "name": "_WinnerChoice",
          "type": "string"
        }
      ],
      "stateMutability": "view",
      "type": "function"
    },
    {
      "inputs": [
        {
          "internalType": "string",
          "name": "_choice",
          "type": "string"
        },
        {
          "internalType": "string",
          "name": "_vName",
          "type": "string"
        }
      ],
      "name": "Vote",
      "outputs": [],
      "stateMutability": "nonpayable",
      "type": "function"
    },
    {
      "inputs": [],
      "name": "VoteInfo",
      "outputs": [
        {
          "internalType": "uint256[]",
          "name": "",
          "type": "uint256[]"
        }
      ],
      "stateMutability": "view",
      "type": "function"
    },
    {
      "inputs": [
        {
          "internalType": "uint256",
          "name": "",
          "type": "uint256"
        }
      ],
      "name": "choices",
      "outputs": [
        {
          "internalType": "string",
          "name": "Name",
          "type": "string"
        },
        {
          "internalType": "uint256",
          "name": "voteCount",
          "type": "uint256"
        }
      ],
      "stateMutability": "view",
      "type": "function"
    },
    {
      "inputs": [],
      "name": "endVote",
      "outputs": [],
      "stateMutability": "nonpayable",
      "type": "function"
    },
    {
      "inputs": [],
      "name": "startVote",
      "outputs": [],
      "stateMutability": "nonpayable",
      "type": "function"
    },
    {
      "inputs": [],
      "name": "state",
      "outputs": [
        {
          "internalType": "enum Polling.States",
          "name": "",
          "type": "uint8"
        }
      ],
      "stateMutability": "view",
      "type": "function"
    },
    {
      "inputs": [],
      "name": "statement",
      "outputs": [
        {
          "internalType": "string",
          "name": "",
          "type": "string"
        }
      ],
      "stateMutability": "view",
      "type": "function"
    },
    {
      "inputs": [],
      "name": "totalVoter",
      "outputs": [
        {
          "internalType": "uint256",
          "name": "",
          "type": "uint256"
        }
      ],
      "stateMutability": "view",
      "type": "function"
    }
  ],
  "bytecode": "0x60806040523480156200001157600080fd5b5060405162001fbf38038062001fbf83398181016040528101906200003791906200043e565b33600160006101000a81548173ffffffffffffffffffffffffffffffffffffffff021916908373ffffffffffffffffffffffffffffffffffffffff1602179055506000808190555080600290816200009091906200070e565b506000600660006101000a81548160ff02191690836002811115620000ba57620000b9620007f5565b5b021790555060005b8251811015620001a65760046040518060400160405280858481518110620000ef57620000ee62000824565b5b602002602001015181526020016000815250908060018154018082558091505060019003906000526020600020906002020160009091909190915060008201518160000190816200014191906200070e565b5060208201518160010155505080600584838151811062000167576200016662000824565b5b60200260200101516040516200017e919062000895565b90815260200160405180910390208190555080806200019d90620008dd565b915050620000c2565b5050506200092a565b6000604051905090565b600080fd5b600080fd5b600080fd5b6000601f19601f8301169050919050565b7f4e487b7100000000000000000000000000000000000000000000000000000000600052604160045260246000fd5b6200021382620001c8565b810181811067ffffffffffffffff82111715620002355762000234620001d9565b5b80604052505050565b60006200024a620001af565b905062000258828262000208565b919050565b600067ffffffffffffffff8211156200027b576200027a620001d9565b5b602082029050602081019050919050565b600080fd5b600080fd5b600067ffffffffffffffff821115620002b457620002b3620001d9565b5b620002bf82620001c8565b9050602081019050919050565b60005b83811015620002ec578082015181840152602081019050620002cf565b60008484015250505050565b60006200030f620003098462000296565b6200023e565b9050828152602081018484840111156200032e576200032d62000291565b5b6200033b848285620002cc565b509392505050565b600082601f8301126200035b576200035a620001c3565b5b81516200036d848260208601620002f8565b91505092915050565b60006200038d62000387846200025d565b6200023e565b90508083825260208201905060208402830185811115620003b357620003b26200028c565b5b835b818110156200040157805167ffffffffffffffff811115620003dc57620003db620001c3565b5b808601620003eb898262000343565b85526020850194505050602081019050620003b5565b5050509392505050565b600082601f830112620004235762000422620001c3565b5b81516200043584826020860162000376565b91505092915050565b60008060408385031215620004585762000457620001b9565b5b600083015167ffffffffffffffff811115620004795762000478620001be565b5b62000487858286016200040b565b925050602083015167ffffffffffffffff811115620004ab57620004aa620001be565b5b620004b98582860162000343565b9150509250929050565b600081519050919050565b7f4e487b7100000000000000000000000000000000000000000000000000000000600052602260045260246000fd5b600060028204905060018216806200051657607f821691505b6020821081036200052c576200052b620004ce565b5b50919050565b60008190508160005260206000209050919050565b60006020601f8301049050919050565b600082821b905092915050565b600060088302620005967fffffffffffffffffffffffffffffffffffffffffffffffffffffffffffffffff8262000557565b620005a2868362000557565b95508019841693508086168417925050509392505050565b6000819050919050565b6000819050919050565b6000620005ef620005e9620005e384620005ba565b620005c4565b620005ba565b9050919050565b6000819050919050565b6200060b83620005ce565b620006236200061a82620005f6565b84845462000564565b825550505050565b600090565b6200063a6200062b565b6200064781848462000600565b505050565b5b818110156200066f576200066360008262000630565b6001810190506200064d565b5050565b601f821115620006be57620006888162000532565b620006938462000547565b81016020851015620006a3578190505b620006bb620006b28562000547565b8301826200064c565b50505b505050565b600082821c905092915050565b6000620006e360001984600802620006c3565b1980831691505092915050565b6000620006fe8383620006d0565b9150826002028217905092915050565b6200071982620004c3565b67ffffffffffffffff811115620007355762000734620001d9565b5b620007418254620004fd565b6200074e82828562000673565b600060209050601f83116001811462000786576000841562000771578287015190505b6200077d8582620006f0565b865550620007ed565b601f198416620007968662000532565b60005b82811015620007c05784890151825560018201915060208501945060208101905062000799565b86831015620007e05784890151620007dc601f891682620006d0565b8355505b6001600288020188555050505b505050505050565b7f4e487b7100000000000000000000000000000000000000000000000000000000600052602160045260246000fd5b7f4e487b7100000000000000000000000000000000000000000000000000000000600052603260045260246000fd5b600081905092915050565b60006200086b82620004c3565b62000877818562000853565b935062000889818560208601620002cc565b80840191505092915050565b6000620008a382846200085e565b915081905092915050565b7f4e487b7100000000000000000000000000000000000000000000000000000000600052601160045260246000fd5b6000620008ea82620005ba565b91507fffffffffffffffffffffffffffffffffffffffffffffffffffffffffffffffff82036200091f576200091e620008ae565b5b600182019050919050565b611685806200093a6000396000f3fe608060405234801561001057600080fd5b506004361061009e5760003560e01c8063c04473c611610066578063c04473c61461010f578063c19d93fb1461012d578063d96552b91461014b578063e42cb9f314610169578063f6fd7fde146101875761009e565b806317072d6b146100a3578063243c7487146100bf5780634c0a6af0146100dd5780636332abc9146100e7578063b922394614610105575b600080fd5b6100bd60048036038101906100b89190610cf0565b6101b8565b005b6100c7610401565b6040516100d49190610de7565b60405180910390f35b6100e5610553565b005b6100ef610688565b6040516100fc9190610e22565b60405180910390f35b61010d61068e565b005b6101176107c3565b6040516101249190610efb565b60405180910390f35b610135610887565b6040516101429190610f94565b60405180910390f35b61015361089a565b6040516101609190610ff0565b60405180910390f35b6101716108c0565b60405161017e9190610de7565b60405180910390f35b6101a1600480360381019061019c9190611037565b61094e565b6040516101af929190611064565b60405180910390f35b60018060028111156101cd576101cc610f1d565b5b600660009054906101000a900460ff1660028111156101ef576101ee610f1d565b5b1461022f576040517f08c379a0000000000000000000000000000000000000000000000000000000008152600401610226906110e0565b60405180910390fd5b600160009054906101000a900473ffffffffffffffffffffffffffffffffffffffff1673ffffffffffffffffffffffffffffffffffffffff163373ffffffffffffffffffffffffffffffffffffffff16036102bf576040517f08c379a00000000000000000000000000000000000000000000000000000000081526004016102b69061114c565b60405180910390fd5b6000600360003373ffffffffffffffffffffffffffffffffffffffff1673ffffffffffffffffffffffffffffffffffffffff1681526020019081526020016000209050600015158160010160009054906101000a900460ff1615151461035a576040517f08c379a0000000000000000000000000000000000000000000000000000000008152600401610351906111b8565b60405180910390fd5b60018160010160006101000a81548160ff0219169083151502179055508281600001908161038891906113e4565b506001600460058660405161039d91906114f2565b908152602001604051809103902054815481106103bd576103bc611509565b5b906000526020600020906002020160010160008282546103dd9190611567565b925050819055506000808154809291906103f69061159b565b919050555050505050565b6060600160009054906101000a900473ffffffffffffffffffffffffffffffffffffffff1673ffffffffffffffffffffffffffffffffffffffff163373ffffffffffffffffffffffffffffffffffffffff1614610493576040517f08c379a000000000000000000000000000000000000000000000000000000000815260040161048a9061162f565b60405180910390fd5b600061049d610a0a565b9050600481815481106104b3576104b2611509565b5b906000526020600020906002020160000180546104cf90611207565b80601f01602080910402602001604051908101604052809291908181526020018280546104fb90611207565b80156105485780601f1061051d57610100808354040283529160200191610548565b820191906000526020600020905b81548152906001019060200180831161052b57829003601f168201915b505050505091505090565b600160009054906101000a900473ffffffffffffffffffffffffffffffffffffffff1673ffffffffffffffffffffffffffffffffffffffff163373ffffffffffffffffffffffffffffffffffffffff16146105e3576040517f08c379a00000000000000000000000000000000000000000000000000000000081526004016105da9061162f565b60405180910390fd5b60008060028111156105f8576105f7610f1d565b5b600660009054906101000a900460ff16600281111561061a57610619610f1d565b5b1461065a576040517f08c379a0000000000000000000000000000000000000000000000000000000008152600401610651906110e0565b60405180910390fd5b6001600660006101000a81548160ff021916908360028111156106805761067f610f1d565b5b021790555050565b60005481565b600160009054906101000a900473ffffffffffffffffffffffffffffffffffffffff1673ffffffffffffffffffffffffffffffffffffffff163373ffffffffffffffffffffffffffffffffffffffff161461071e576040517f08c379a00000000000000000000000000000000000000000000000000000000081526004016107159061162f565b60405180910390fd5b600180600281111561073357610732610f1d565b5b600660009054906101000a900460ff16600281111561075557610754610f1d565b5b14610795576040517f08c379a000000000000000000000000000000000000000000000000000000000815260040161078c906110e0565b60405180910390fd5b6002600660006101000a81548160ff021916908360028111156107bb576107ba610f1d565b5b021790555050565b6060600060048054905067ffffffffffffffff8111156107e6576107e5610bc5565b5b6040519080825280602002602001820160405280156108145781602001602082028036833780820191505090505b50905060005b60048054905081101561087f576004818154811061083b5761083a611509565b5b9060005260206000209060020201600101548282815181106108605761085f611509565b5b60200260200101818152505080806108779061159b565b91505061081a565b508091505090565b600660009054906101000a900460ff1681565b600160009054906101000a900473ffffffffffffffffffffffffffffffffffffffff1681565b600280546108cd90611207565b80601f01602080910402602001604051908101604052809291908181526020018280546108f990611207565b80156109465780601f1061091b57610100808354040283529160200191610946565b820191906000526020600020905b81548152906001019060200180831161092957829003601f168201915b505050505081565b6004818154811061095e57600080fd5b906000526020600020906002020160009150905080600001805461098190611207565b80601f01602080910402602001604051908101604052809291908181526020018280546109ad90611207565b80156109fa5780601f106109cf576101008083540402835291602001916109fa565b820191906000526020600020905b8154815290600101906020018083116109dd57829003601f168201915b5050505050908060010154905082565b60006002806002811115610a2157610a20610f1d565b5b600660009054906101000a900460ff166002811115610a4357610a42610f1d565b5b14610a83576040517f08c379a0000000000000000000000000000000000000000000000000000000008152600401610a7a906110e0565b60405180910390fd5b600160009054906101000a900473ffffffffffffffffffffffffffffffffffffffff1673ffffffffffffffffffffffffffffffffffffffff163373ffffffffffffffffffffffffffffffffffffffff1614610b13576040517f08c379a0000000000000000000000000000000000000000000000000000000008152600401610b0a9061162f565b60405180910390fd5b6000805b600480549050811015610b90578160048281548110610b3957610b38611509565b5b9060005260206000209060020201600101541115610b7d5760048181548110610b6557610b64611509565b5b90600052602060002090600202016001015491508093505b8080610b889061159b565b915050610b17565b50505090565b6000604051905090565b600080fd5b600080fd5b600080fd5b600080fd5b6000601f19601f8301169050919050565b7f4e487b7100000000000000000000000000000000000000000000000000000000600052604160045260246000fd5b610bfd82610bb4565b810181811067ffffffffffffffff82111715610c1c57610c1b610bc5565b5b80604052505050565b6000610c2f610b96565b9050610c3b8282610bf4565b919050565b600067ffffffffffffffff821115610c5b57610c5a610bc5565b5b610c6482610bb4565b9050602081019050919050565b82818337600083830152505050565b6000610c93610c8e84610c40565b610c25565b905082815260208101848484011115610caf57610cae610baf565b5b610cba848285610c71565b509392505050565b600082601f830112610cd757610cd6610baa565b5b8135610ce7848260208601610c80565b91505092915050565b60008060408385031215610d0757610d06610ba0565b5b600083013567ffffffffffffffff811115610d2557610d24610ba5565b5b610d3185828601610cc2565b925050602083013567ffffffffffffffff811115610d5257610d51610ba5565b5b610d5e85828601610cc2565b9150509250929050565b600081519050919050565b600082825260208201905092915050565b60005b83811015610da2578082015181840152602081019050610d87565b60008484015250505050565b6000610db982610d68565b610dc38185610d73565b9350610dd3818560208601610d84565b610ddc81610bb4565b840191505092915050565b60006020820190508181036000830152610e018184610dae565b905092915050565b6000819050919050565b610e1c81610e09565b82525050565b6000602082019050610e376000830184610e13565b92915050565b600081519050919050565b600082825260208201905092915050565b6000819050602082019050919050565b610e7281610e09565b82525050565b6000610e848383610e69565b60208301905092915050565b6000602082019050919050565b6000610ea882610e3d565b610eb28185610e48565b9350610ebd83610e59565b8060005b83811015610eee578151610ed58882610e78565b9750610ee083610e90565b925050600181019050610ec1565b5085935050505092915050565b60006020820190508181036000830152610f158184610e9d565b905092915050565b7f4e487b7100000000000000000000000000000000000000000000000000000000600052602160045260246000fd5b60038110610f5d57610f5c610f1d565b5b50565b6000819050610f6e82610f4c565b919050565b6000610f7e82610f60565b9050919050565b610f8e81610f73565b82525050565b6000602082019050610fa96000830184610f85565b92915050565b600073ffffffffffffffffffffffffffffffffffffffff82169050919050565b6000610fda82610faf565b9050919050565b610fea81610fcf565b82525050565b60006020820190506110056000830184610fe1565b92915050565b61101481610e09565b811461101f57600080fd5b50565b6000813590506110318161100b565b92915050565b60006020828403121561104d5761104c610ba0565b5b600061105b84828501611022565b91505092915050565b6000604082019050818103600083015261107e8185610dae565b905061108d6020830184610e13565b9392505050565b7f446966666572656e742053746174650000000000000000000000000000000000600082015250565b60006110ca600f83610d73565b91506110d582611094565b602082019050919050565b600060208201905081810360008301526110f9816110bd565b9050919050565b7f546865206f6666696369616c2063616e6e6f7420766f74652e00000000000000600082015250565b6000611136601983610d73565b915061114182611100565b602082019050919050565b6000602082019050818103600083015261116581611129565b9050919050565b7f416c726561647920566f74656400000000000000000000000000000000000000600082015250565b60006111a2600d83610d73565b91506111ad8261116c565b602082019050919050565b600060208201905081810360008301526111d181611195565b9050919050565b7f4e487b7100000000000000000000000000000000000000000000000000000000600052602260045260246000fd5b6000600282049050600182168061121f57607f821691505b602082108103611232576112316111d8565b5b50919050565b60008190508160005260206000209050919050565b60006020601f8301049050919050565b600082821b905092915050565b60006008830261129a7fffffffffffffffffffffffffffffffffffffffffffffffffffffffffffffffff8261125d565b6112a4868361125d565b95508019841693508086168417925050509392505050565b6000819050919050565b60006112e16112dc6112d784610e09565b6112bc565b610e09565b9050919050565b6000819050919050565b6112fb836112c6565b61130f611307826112e8565b84845461126a565b825550505050565b600090565b611324611317565b61132f8184846112f2565b505050565b5b818110156113535761134860008261131c565b600181019050611335565b5050565b601f8211156113985761136981611238565b6113728461124d565b81016020851015611381578190505b61139561138d8561124d565b830182611334565b50505b505050565b600082821c905092915050565b60006113bb6000198460080261139d565b1980831691505092915050565b60006113d483836113aa565b9150826002028217905092915050565b6113ed82610d68565b67ffffffffffffffff81111561140657611405610bc5565b5b6114108254611207565b61141b828285611357565b600060209050601f83116001811461144e576000841561143c578287015190505b61144685826113c8565b8655506114ae565b601f19841661145c86611238565b60005b828110156114845784890151825560018201915060208501945060208101905061145f565b868310156114a1578489015161149d601f8916826113aa565b8355505b6001600288020188555050505b505050505050565b600081905092915050565b60006114cc82610d68565b6114d681856114b6565b93506114e6818560208601610d84565b80840191505092915050565b60006114fe82846114c1565b915081905092915050565b7f4e487b7100000000000000000000000000000000000000000000000000000000600052603260045260246000fd5b7f4e487b7100000000000000000000000000000000000000000000000000000000600052601160045260246000fd5b600061157282610e09565b915061157d83610e09565b925082820190508082111561159557611594611538565b5b92915050565b60006115a682610e09565b91507fffffffffffffffffffffffffffffffffffffffffffffffffffffffffffffffff82036115d8576115d7611538565b5b600182019050919050565b7f596f7520617265206e6f7420746865206f6666696369616c0000000000000000600082015250565b6000611619601883610d73565b9150611624826115e3565b602082019050919050565b600060208201905081810360008301526116488161160c565b905091905056fea2646970667358221220de370f836dc88007eb920c8651a261968760f7fb7e154507cac049e51242f65964736f6c63430008110033",
  "linkReferences": {},
  "deployedLinkReferences": {}
}