{
  "_format": "hh-sol-artifact-1",
  "contractName": "Polling",
  "sourceName": "contracts/Polling.sol",
  "abi": [
    {
      "inputs": [
        {
          "internalType": "string[]",
          "name": "choiceNames",
          "type": "string[]"
        },
        {
          "internalType": "string",
          "name": "_st",
          "type": "string"
        }
      ],
      "stateMutability": "nonpayable",
      "type": "constructor"
    },
    {
      "inputs": [],
      "name": "OfficialAddress",
      "outputs": [
        {
          "internalType": "address",
          "name": "",
          "type": "address"
        }
      ],
      "stateMutability": "view",
      "type": "function"
    },
    {
      "inputs": [],
      "name": "ResultDeclare",
      "outputs": [
        {
          "internalType": "string",
          "name": "_WinnerChoice",
          "type": "string"
        }
      ],
      "stateMutability": "view",
      "type": "function"
    },
    {
      "inputs": [
        {
          "internalType": "string",
          "name": "_choice",
          "type": "string"
        },
        {
          "internalType": "string",
          "name": "_vName",
          "type": "string"
        }
      ],
      "name": "Vote",
      "outputs": [],
      "stateMutability": "nonpayable",
      "type": "function"
    },
    {
      "inputs": [],
      "name": "VoteInfo",
      "outputs": [
        {
          "internalType": "uint256[]",
          "name": "",
          "type": "uint256[]"
        }
      ],
      "stateMutability": "view",
      "type": "function"
    },
    {
      "inputs": [],
      "name": "endVote",
      "outputs": [],
      "stateMutability": "nonpayable",
      "type": "function"
    },
    {
      "inputs": [],
      "name": "getState",
      "outputs": [
        {
          "internalType": "uint256",
          "name": "",
          "type": "uint256"
        }
      ],
      "stateMutability": "view",
      "type": "function"
    },
    {
      "inputs": [],
      "name": "startVote",
      "outputs": [],
      "stateMutability": "nonpayable",
      "type": "function"
    },
    {
      "inputs": [],
      "name": "statement",
      "outputs": [
        {
          "internalType": "string",
          "name": "",
          "type": "string"
        }
      ],
      "stateMutability": "view",
      "type": "function"
    },
    {
      "inputs": [],
      "name": "totalVoter",
      "outputs": [
        {
          "internalType": "uint256",
          "name": "",
          "type": "uint256"
        }
      ],
      "stateMutability": "view",
      "type": "function"
    }
  ],
  "bytecode": "0x60806040523480156200001157600080fd5b5060405162001df138038062001df183398181016040528101906200003791906200043e565b33600160006101000a81548173ffffffffffffffffffffffffffffffffffffffff021916908373ffffffffffffffffffffffffffffffffffffffff1602179055506000808190555080600290816200009091906200070e565b506000600660006101000a81548160ff02191690836002811115620000ba57620000b9620007f5565b5b021790555060005b8251811015620001a65760046040518060400160405280858481518110620000ef57620000ee62000824565b5b602002602001015181526020016000815250908060018154018082558091505060019003906000526020600020906002020160009091909190915060008201518160000190816200014191906200070e565b5060208201518160010155505080600584838151811062000167576200016662000824565b5b60200260200101516040516200017e919062000895565b90815260200160405180910390208190555080806200019d90620008dd565b915050620000c2565b5050506200092a565b6000604051905090565b600080fd5b600080fd5b600080fd5b6000601f19601f8301169050919050565b7f4e487b7100000000000000000000000000000000000000000000000000000000600052604160045260246000fd5b6200021382620001c8565b810181811067ffffffffffffffff82111715620002355762000234620001d9565b5b80604052505050565b60006200024a620001af565b905062000258828262000208565b919050565b600067ffffffffffffffff8211156200027b576200027a620001d9565b5b602082029050602081019050919050565b600080fd5b600080fd5b600067ffffffffffffffff821115620002b457620002b3620001d9565b5b620002bf82620001c8565b9050602081019050919050565b60005b83811015620002ec578082015181840152602081019050620002cf565b60008484015250505050565b60006200030f620003098462000296565b6200023e565b9050828152602081018484840111156200032e576200032d62000291565b5b6200033b848285620002cc565b509392505050565b600082601f8301126200035b576200035a620001c3565b5b81516200036d848260208601620002f8565b91505092915050565b60006200038d62000387846200025d565b6200023e565b90508083825260208201905060208402830185811115620003b357620003b26200028c565b5b835b818110156200040157805167ffffffffffffffff811115620003dc57620003db620001c3565b5b808601620003eb898262000343565b85526020850194505050602081019050620003b5565b5050509392505050565b600082601f830112620004235762000422620001c3565b5b81516200043584826020860162000376565b91505092915050565b60008060408385031215620004585762000457620001b9565b5b600083015167ffffffffffffffff811115620004795762000478620001be565b5b62000487858286016200040b565b925050602083015167ffffffffffffffff811115620004ab57620004aa620001be565b5b620004b98582860162000343565b9150509250929050565b600081519050919050565b7f4e487b7100000000000000000000000000000000000000000000000000000000600052602260045260246000fd5b600060028204905060018216806200051657607f821691505b6020821081036200052c576200052b620004ce565b5b50919050565b60008190508160005260206000209050919050565b60006020601f8301049050919050565b600082821b905092915050565b600060088302620005967fffffffffffffffffffffffffffffffffffffffffffffffffffffffffffffffff8262000557565b620005a2868362000557565b95508019841693508086168417925050509392505050565b6000819050919050565b6000819050919050565b6000620005ef620005e9620005e384620005ba565b620005c4565b620005ba565b9050919050565b6000819050919050565b6200060b83620005ce565b620006236200061a82620005f6565b84845462000564565b825550505050565b600090565b6200063a6200062b565b6200064781848462000600565b505050565b5b818110156200066f576200066360008262000630565b6001810190506200064d565b5050565b601f821115620006be57620006888162000532565b620006938462000547565b81016020851015620006a3578190505b620006bb620006b28562000547565b8301826200064c565b50505b505050565b600082821c905092915050565b6000620006e360001984600802620006c3565b1980831691505092915050565b6000620006fe8383620006d0565b9150826002028217905092915050565b6200071982620004c3565b67ffffffffffffffff811115620007355762000734620001d9565b5b620007418254620004fd565b6200074e82828562000673565b600060209050601f83116001811462000786576000841562000771578287015190505b6200077d8582620006f0565b865550620007ed565b601f198416620007968662000532565b60005b82811015620007c05784890151825560018201915060208501945060208101905062000799565b86831015620007e05784890151620007dc601f891682620006d0565b8355505b6001600288020188555050505b505050505050565b7f4e487b7100000000000000000000000000000000000000000000000000000000600052602160045260246000fd5b7f4e487b7100000000000000000000000000000000000000000000000000000000600052603260045260246000fd5b600081905092915050565b60006200086b82620004c3565b62000877818562000853565b935062000889818560208601620002cc565b80840191505092915050565b6000620008a382846200085e565b915081905092915050565b7f4e487b7100000000000000000000000000000000000000000000000000000000600052601160045260246000fd5b6000620008ea82620005ba565b91507fffffffffffffffffffffffffffffffffffffffffffffffffffffffffffffffff82036200091f576200091e620008ae565b5b600182019050919050565b6114b7806200093a6000396000f3fe608060405234801561001057600080fd5b50600436106100935760003560e01c80636332abc9116100665780636332abc9146100fa578063b922394614610118578063c04473c614610122578063d96552b914610140578063e42cb9f31461015e57610093565b806317072d6b146100985780631865c57d146100b4578063243c7487146100d25780634c0a6af0146100f0575b600080fd5b6100b260048036038101906100ad9190610c0e565b61017c565b005b6100bc6103c5565b6040516100c99190610c9f565b60405180910390f35b6100da6103ee565b6040516100e79190610d39565b60405180910390f35b6100f8610540565b005b610102610675565b60405161010f9190610c9f565b60405180910390f35b61012061067b565b005b61012a6107b0565b6040516101379190610e19565b60405180910390f35b610148610874565b6040516101559190610e7c565b60405180910390f35b61016661089a565b6040516101739190610d39565b60405180910390f35b600180600281111561019157610190610e97565b5b600660009054906101000a900460ff1660028111156101b3576101b2610e97565b5b146101f3576040517f08c379a00000000000000000000000000000000000000000000000000000000081526004016101ea90610f12565b60405180910390fd5b600160009054906101000a900473ffffffffffffffffffffffffffffffffffffffff1673ffffffffffffffffffffffffffffffffffffffff163373ffffffffffffffffffffffffffffffffffffffff1603610283576040517f08c379a000000000000000000000000000000000000000000000000000000000815260040161027a90610f7e565b60405180910390fd5b6000600360003373ffffffffffffffffffffffffffffffffffffffff1673ffffffffffffffffffffffffffffffffffffffff1681526020019081526020016000209050600015158160010160009054906101000a900460ff1615151461031e576040517f08c379a000000000000000000000000000000000000000000000000000000000815260040161031590610fea565b60405180910390fd5b60018160010160006101000a81548160ff0219169083151502179055508281600001908161034c9190611216565b50600160046005866040516103619190611324565b908152602001604051809103902054815481106103815761038061133b565b5b906000526020600020906002020160010160008282546103a19190611399565b925050819055506000808154809291906103ba906113cd565b919050555050505050565b6000600660009054906101000a900460ff1660028111156103e9576103e8610e97565b5b905090565b6060600160009054906101000a900473ffffffffffffffffffffffffffffffffffffffff1673ffffffffffffffffffffffffffffffffffffffff163373ffffffffffffffffffffffffffffffffffffffff1614610480576040517f08c379a000000000000000000000000000000000000000000000000000000000815260040161047790611461565b60405180910390fd5b600061048a610928565b9050600481815481106104a05761049f61133b565b5b906000526020600020906002020160000180546104bc90611039565b80601f01602080910402602001604051908101604052809291908181526020018280546104e890611039565b80156105355780601f1061050a57610100808354040283529160200191610535565b820191906000526020600020905b81548152906001019060200180831161051857829003601f168201915b505050505091505090565b600160009054906101000a900473ffffffffffffffffffffffffffffffffffffffff1673ffffffffffffffffffffffffffffffffffffffff163373ffffffffffffffffffffffffffffffffffffffff16146105d0576040517f08c379a00000000000000000000000000000000000000000000000000000000081526004016105c790611461565b60405180910390fd5b60008060028111156105e5576105e4610e97565b5b600660009054906101000a900460ff16600281111561060757610606610e97565b5b14610647576040517f08c379a000000000000000000000000000000000000000000000000000000000815260040161063e90610f12565b60405180910390fd5b6001600660006101000a81548160ff0219169083600281111561066d5761066c610e97565b5b021790555050565b60005481565b600160009054906101000a900473ffffffffffffffffffffffffffffffffffffffff1673ffffffffffffffffffffffffffffffffffffffff163373ffffffffffffffffffffffffffffffffffffffff161461070b576040517f08c379a000000000000000000000000000000000000000000000000000000000815260040161070290611461565b60405180910390fd5b60018060028111156107205761071f610e97565b5b600660009054906101000a900460ff16600281111561074257610741610e97565b5b14610782576040517f08c379a000000000000000000000000000000000000000000000000000000000815260040161077990610f12565b60405180910390fd5b6002600660006101000a81548160ff021916908360028111156107a8576107a7610e97565b5b021790555050565b6060600060048054905067ffffffffffffffff8111156107d3576107d2610ae3565b5b6040519080825280602002602001820160405280156108015781602001602082028036833780820191505090505b50905060005b60048054905081101561086c57600481815481106108285761082761133b565b5b90600052602060002090600202016001015482828151811061084d5761084c61133b565b5b6020026020010181815250508080610864906113cd565b915050610807565b508091505090565b600160009054906101000a900473ffffffffffffffffffffffffffffffffffffffff1681565b600280546108a790611039565b80601f01602080910402602001604051908101604052809291908181526020018280546108d390611039565b80156109205780601f106108f557610100808354040283529160200191610920565b820191906000526020600020905b81548152906001019060200180831161090357829003601f168201915b505050505081565b6000600280600281111561093f5761093e610e97565b5b600660009054906101000a900460ff16600281111561096157610960610e97565b5b146109a1576040517f08c379a000000000000000000000000000000000000000000000000000000000815260040161099890610f12565b60405180910390fd5b600160009054906101000a900473ffffffffffffffffffffffffffffffffffffffff1673ffffffffffffffffffffffffffffffffffffffff163373ffffffffffffffffffffffffffffffffffffffff1614610a31576040517f08c379a0000000000000000000000000000000000000000000000000000000008152600401610a2890611461565b60405180910390fd5b6000805b600480549050811015610aae578160048281548110610a5757610a5661133b565b5b9060005260206000209060020201600101541115610a9b5760048181548110610a8357610a8261133b565b5b90600052602060002090600202016001015491508093505b8080610aa6906113cd565b915050610a35565b50505090565b6000604051905090565b600080fd5b600080fd5b600080fd5b600080fd5b6000601f19601f8301169050919050565b7f4e487b7100000000000000000000000000000000000000000000000000000000600052604160045260246000fd5b610b1b82610ad2565b810181811067ffffffffffffffff82111715610b3a57610b39610ae3565b5b80604052505050565b6000610b4d610ab4565b9050610b598282610b12565b919050565b600067ffffffffffffffff821115610b7957610b78610ae3565b5b610b8282610ad2565b9050602081019050919050565b82818337600083830152505050565b6000610bb1610bac84610b5e565b610b43565b905082815260208101848484011115610bcd57610bcc610acd565b5b610bd8848285610b8f565b509392505050565b600082601f830112610bf557610bf4610ac8565b5b8135610c05848260208601610b9e565b91505092915050565b60008060408385031215610c2557610c24610abe565b5b600083013567ffffffffffffffff811115610c4357610c42610ac3565b5b610c4f85828601610be0565b925050602083013567ffffffffffffffff811115610c7057610c6f610ac3565b5b610c7c85828601610be0565b9150509250929050565b6000819050919050565b610c9981610c86565b82525050565b6000602082019050610cb46000830184610c90565b92915050565b600081519050919050565b600082825260208201905092915050565b60005b83811015610cf4578082015181840152602081019050610cd9565b60008484015250505050565b6000610d0b82610cba565b610d158185610cc5565b9350610d25818560208601610cd6565b610d2e81610ad2565b840191505092915050565b60006020820190508181036000830152610d538184610d00565b905092915050565b600081519050919050565b600082825260208201905092915050565b6000819050602082019050919050565b610d9081610c86565b82525050565b6000610da28383610d87565b60208301905092915050565b6000602082019050919050565b6000610dc682610d5b565b610dd08185610d66565b9350610ddb83610d77565b8060005b83811015610e0c578151610df38882610d96565b9750610dfe83610dae565b925050600181019050610ddf565b5085935050505092915050565b60006020820190508181036000830152610e338184610dbb565b905092915050565b600073ffffffffffffffffffffffffffffffffffffffff82169050919050565b6000610e6682610e3b565b9050919050565b610e7681610e5b565b82525050565b6000602082019050610e916000830184610e6d565b92915050565b7f4e487b7100000000000000000000000000000000000000000000000000000000600052602160045260246000fd5b7f446966666572656e742053746174650000000000000000000000000000000000600082015250565b6000610efc600f83610cc5565b9150610f0782610ec6565b602082019050919050565b60006020820190508181036000830152610f2b81610eef565b9050919050565b7f546865206f6666696369616c2063616e6e6f7420766f74652e00000000000000600082015250565b6000610f68601983610cc5565b9150610f7382610f32565b602082019050919050565b60006020820190508181036000830152610f9781610f5b565b9050919050565b7f416c726561647920566f74656400000000000000000000000000000000000000600082015250565b6000610fd4600d83610cc5565b9150610fdf82610f9e565b602082019050919050565b6000602082019050818103600083015261100381610fc7565b9050919050565b7f4e487b7100000000000000000000000000000000000000000000000000000000600052602260045260246000fd5b6000600282049050600182168061105157607f821691505b6020821081036110645761106361100a565b5b50919050565b60008190508160005260206000209050919050565b60006020601f8301049050919050565b600082821b905092915050565b6000600883026110cc7fffffffffffffffffffffffffffffffffffffffffffffffffffffffffffffffff8261108f565b6110d6868361108f565b95508019841693508086168417925050509392505050565b6000819050919050565b600061111361110e61110984610c86565b6110ee565b610c86565b9050919050565b6000819050919050565b61112d836110f8565b6111416111398261111a565b84845461109c565b825550505050565b600090565b611156611149565b611161818484611124565b505050565b5b818110156111855761117a60008261114e565b600181019050611167565b5050565b601f8211156111ca5761119b8161106a565b6111a48461107f565b810160208510156111b3578190505b6111c76111bf8561107f565b830182611166565b50505b505050565b600082821c905092915050565b60006111ed600019846008026111cf565b1980831691505092915050565b600061120683836111dc565b9150826002028217905092915050565b61121f82610cba565b67ffffffffffffffff81111561123857611237610ae3565b5b6112428254611039565b61124d828285611189565b600060209050601f831160018114611280576000841561126e578287015190505b61127885826111fa565b8655506112e0565b601f19841661128e8661106a565b60005b828110156112b657848901518255600182019150602085019450602081019050611291565b868310156112d357848901516112cf601f8916826111dc565b8355505b6001600288020188555050505b505050505050565b600081905092915050565b60006112fe82610cba565b61130881856112e8565b9350611318818560208601610cd6565b80840191505092915050565b600061133082846112f3565b915081905092915050565b7f4e487b7100000000000000000000000000000000000000000000000000000000600052603260045260246000fd5b7f4e487b7100000000000000000000000000000000000000000000000000000000600052601160045260246000fd5b60006113a482610c86565b91506113af83610c86565b92508282019050808211156113c7576113c661136a565b5b92915050565b60006113d882610c86565b91507fffffffffffffffffffffffffffffffffffffffffffffffffffffffffffffffff820361140a5761140961136a565b5b600182019050919050565b7f596f7520617265206e6f7420746865206f6666696369616c0000000000000000600082015250565b600061144b601883610cc5565b915061145682611415565b602082019050919050565b6000602082019050818103600083015261147a8161143e565b905091905056fea2646970667358221220e3aeb62da638b268e0c036e3a74678cb60b2259af0241f20dbb20f93ceddce4464736f6c63430008110033",
  "linkReferences": {},
  "deployedLinkReferences": {}
}