{
  "_format": "hh-sol-artifact-1",
  "contractName": "Records",
  "sourceName": "contracts/Records.sol",
  "abi": [
    {
      "inputs": [
        {
          "internalType": "address",
          "name": "_pollAddress",
          "type": "address"
        }
      ],
      "stateMutability": "nonpayable",
      "type": "constructor"
    },
    {
      "inputs": [
        {
          "internalType": "address",
          "name": "_pAddress",
          "type": "address"
        }
      ],
      "name": "addPolls",
      "outputs": [],
      "stateMutability": "nonpayable",
      "type": "function"
    },
    {
      "inputs": [],
      "name": "getPolls",
      "outputs": [
        {
          "internalType": "address[]",
          "name": "",
          "type": "address[]"
        }
      ],
      "stateMutability": "view",
      "type": "function"
    },
    {
      "inputs": [],
      "name": "pollCreator",
      "outputs": [
        {
          "internalType": "address",
          "name": "",
          "type": "address"
        }
      ],
      "stateMutability": "view",
      "type": "function"
    }
  ],
  "bytecode": "0x608060405234801561001057600080fd5b50604051610a04380380610a048339818101604052810190610032919061022a565b336000806101000a81548173ffffffffffffffffffffffffffffffffffffffff021916908373ffffffffffffffffffffffffffffffffffffffff16021790555060008054906101000a900473ffffffffffffffffffffffffffffffffffffffff1673ffffffffffffffffffffffffffffffffffffffff168173ffffffffffffffffffffffffffffffffffffffff1603610100576040517f08c379a00000000000000000000000000000000000000000000000000000000081526004016100f7906102da565b60405180910390fd5b600160008060009054906101000a900473ffffffffffffffffffffffffffffffffffffffff1673ffffffffffffffffffffffffffffffffffffffff1673ffffffffffffffffffffffffffffffffffffffff168152602001908152602001600020819080600181540180825580915050600190039060005260206000200160009091909190916101000a81548173ffffffffffffffffffffffffffffffffffffffff021916908373ffffffffffffffffffffffffffffffffffffffff160217905550506102fa565b600080fd5b600073ffffffffffffffffffffffffffffffffffffffff82169050919050565b60006101f7826101cc565b9050919050565b610207816101ec565b811461021257600080fd5b50565b600081519050610224816101fe565b92915050565b6000602082840312156102405761023f6101c7565b5b600061024e84828501610215565b91505092915050565b600082825260208201905092915050565b7f416464726573732062656c6f6e677320746f2043726561746f72277320454f4160008201527f20616464726573732e0000000000000000000000000000000000000000000000602082015250565b60006102c4602983610257565b91506102cf82610268565b604082019050919050565b600060208201905081810360008301526102f3816102b7565b9050919050565b6106fb806103096000396000f3fe608060405234801561001057600080fd5b50600436106100415760003560e01c8063120fe89b1461004657806375c3f61b14610064578063fa5fb4bf14610082575b600080fd5b61004e61009e565b60405161005b919061050c565b60405180910390f35b61006c610218565b604051610079919061053d565b60405180910390f35b61009c60048036038101906100979190610589565b61023c565b005b606060008054906101000a900473ffffffffffffffffffffffffffffffffffffffff1673ffffffffffffffffffffffffffffffffffffffff163373ffffffffffffffffffffffffffffffffffffffff161461012e576040517f08c379a000000000000000000000000000000000000000000000000000000000815260040161012590610613565b60405180910390fd5b600160008060009054906101000a900473ffffffffffffffffffffffffffffffffffffffff1673ffffffffffffffffffffffffffffffffffffffff1673ffffffffffffffffffffffffffffffffffffffff16815260200190815260200160002080548060200260200160405190810160405280929190818152602001828054801561020e57602002820191906000526020600020905b8160009054906101000a900473ffffffffffffffffffffffffffffffffffffffff1673ffffffffffffffffffffffffffffffffffffffff16815260200190600101908083116101c4575b5050505050905090565b60008054906101000a900473ffffffffffffffffffffffffffffffffffffffff1681565b60008054906101000a900473ffffffffffffffffffffffffffffffffffffffff1673ffffffffffffffffffffffffffffffffffffffff163373ffffffffffffffffffffffffffffffffffffffff16146102ca576040517f08c379a00000000000000000000000000000000000000000000000000000000081526004016102c190610613565b60405180910390fd5b60008054906101000a900473ffffffffffffffffffffffffffffffffffffffff1673ffffffffffffffffffffffffffffffffffffffff168173ffffffffffffffffffffffffffffffffffffffff1603610358576040517f08c379a000000000000000000000000000000000000000000000000000000000815260040161034f906106a5565b60405180910390fd5b600160008060009054906101000a900473ffffffffffffffffffffffffffffffffffffffff1673ffffffffffffffffffffffffffffffffffffffff1673ffffffffffffffffffffffffffffffffffffffff168152602001908152602001600020819080600181540180825580915050600190039060005260206000200160009091909190916101000a81548173ffffffffffffffffffffffffffffffffffffffff021916908373ffffffffffffffffffffffffffffffffffffffff16021790555050565b600081519050919050565b600082825260208201905092915050565b6000819050602082019050919050565b600073ffffffffffffffffffffffffffffffffffffffff82169050919050565b600061047382610448565b9050919050565b61048381610468565b82525050565b6000610495838361047a565b60208301905092915050565b6000602082019050919050565b60006104b98261041c565b6104c38185610427565b93506104ce83610438565b8060005b838110156104ff5781516104e68882610489565b97506104f1836104a1565b9250506001810190506104d2565b5085935050505092915050565b6000602082019050818103600083015261052681846104ae565b905092915050565b61053781610468565b82525050565b6000602082019050610552600083018461052e565b92915050565b600080fd5b61056681610468565b811461057157600080fd5b50565b6000813590506105838161055d565b92915050565b60006020828403121561059f5761059e610558565b5b60006105ad84828501610574565b91505092915050565b600082825260208201905092915050565b7f596f7520617265206e6f74207468652043726561746f72000000000000000000600082015250565b60006105fd6017836105b6565b9150610608826105c7565b602082019050919050565b6000602082019050818103600083015261062c816105f0565b9050919050565b7f416464726573732062656c6f6e677320746f2043726561746f72277320454f4160008201527f20616464726573732e0000000000000000000000000000000000000000000000602082015250565b600061068f6029836105b6565b915061069a82610633565b604082019050919050565b600060208201905081810360008301526106be81610682565b905091905056fea26469706673582212208c872a69362ba5a2873a1d86745a11d3d49ceb6fa2238b944670edc65fd995f664736f6c63430008110033",
  "linkReferences": {},
  "deployedLinkReferences": {}
}